{
  "_format": "hh-sol-artifact-1",
  "contractName": "CarbonProjectRegistry",
  "sourceName": "contracts/CarbonProjectRegistry.sol",
  "abi": [
    {
      "inputs": [
        {
          "internalType": "uint8",
          "name": "_percentageToBeMinted",
          "type": "uint8"
        },
        {
          "internalType": "address",
          "name": "defaultAdmin",
          "type": "address"
        },
        {
          "internalType": "address",
          "name": "defaultProjectOwner",
          "type": "address"
        }
      ],
      "stateMutability": "nonpayable",
      "type": "constructor"
    },
    {
      "inputs": [],
      "name": "AccessControlBadConfirmation",
      "type": "error"
    },
    {
      "inputs": [
        {
          "internalType": "address",
          "name": "account",
          "type": "address"
        },
        {
          "internalType": "bytes32",
          "name": "neededRole",
          "type": "bytes32"
        }
      ],
      "name": "AccessControlUnauthorizedAccount",
      "type": "error"
    },
    {
      "inputs": [
        {
          "internalType": "uint256",
          "name": "carbonReduced",
          "type": "uint256"
        }
      ],
      "name": "InvalidReductionAmount",
      "type": "error"
    },
    {
      "inputs": [],
      "name": "NotProjectOwner",
      "type": "error"
    },
    {
      "inputs": [],
      "name": "ProjectAlreadyAudited",
      "type": "error"
    },
    {
      "inputs": [
        {
          "internalType": "string",
          "name": "verificationId",
          "type": "string"
        }
      ],
      "name": "ProjectAlreadyExists",
      "type": "error"
    },
    {
      "inputs": [],
      "name": "ProjectNotFound",
      "type": "error"
    },
    {
      "inputs": [
        {
          "internalType": "address",
          "name": "account",
          "type": "address"
        },
        {
          "internalType": "bytes32[2]",
          "name": "neededRoles",
          "type": "bytes32[2]"
        }
      ],
      "name": "UnauthorizedAccount",
      "type": "error"
    },
    {
      "anonymous": false,
      "inputs": [
        {
          "indexed": true,
          "internalType": "address",
          "name": "projectOwner",
          "type": "address"
        },
        {
          "indexed": true,
          "internalType": "uint256",
          "name": "projectId",
          "type": "uint256"
        },
        {
          "indexed": false,
          "internalType": "uint256",
          "name": "carbonReduced",
          "type": "uint256"
        },
        {
          "indexed": false,
          "internalType": "string",
          "name": "ipfsCID",
          "type": "string"
        }
      ],
      "name": "ProjectAdded",
      "type": "event"
    },
    {
      "anonymous": false,
      "inputs": [
        {
          "indexed": true,
          "internalType": "bytes32",
          "name": "role",
          "type": "bytes32"
        },
        {
          "indexed": true,
          "internalType": "bytes32",
          "name": "previousAdminRole",
          "type": "bytes32"
        },
        {
          "indexed": true,
          "internalType": "bytes32",
          "name": "newAdminRole",
          "type": "bytes32"
        }
      ],
      "name": "RoleAdminChanged",
      "type": "event"
    },
    {
      "anonymous": false,
      "inputs": [
        {
          "indexed": true,
          "internalType": "bytes32",
          "name": "role",
          "type": "bytes32"
        },
        {
          "indexed": true,
          "internalType": "address",
          "name": "account",
          "type": "address"
        },
        {
          "indexed": true,
          "internalType": "address",
          "name": "sender",
          "type": "address"
        }
      ],
      "name": "RoleGranted",
      "type": "event"
    },
    {
      "anonymous": false,
      "inputs": [
        {
          "indexed": true,
          "internalType": "bytes32",
          "name": "role",
          "type": "bytes32"
        },
        {
          "indexed": true,
          "internalType": "address",
          "name": "account",
          "type": "address"
        },
        {
          "indexed": true,
          "internalType": "address",
          "name": "sender",
          "type": "address"
        }
      ],
      "name": "RoleRevoked",
      "type": "event"
    },
    {
      "inputs": [],
      "name": "AUDITOR_ROLE",
      "outputs": [
        {
          "internalType": "bytes32",
          "name": "",
          "type": "bytes32"
        }
      ],
      "stateMutability": "view",
      "type": "function"
    },
    {
      "inputs": [],
      "name": "DEFAULT_ADMIN_ROLE",
      "outputs": [
        {
          "internalType": "bytes32",
          "name": "",
          "type": "bytes32"
        }
      ],
      "stateMutability": "view",
      "type": "function"
    },
    {
      "inputs": [],
      "name": "PROJECT_OWNER_ROLE",
      "outputs": [
        {
          "internalType": "bytes32",
          "name": "",
          "type": "bytes32"
        }
      ],
      "stateMutability": "view",
      "type": "function"
    },
    {
      "inputs": [
        {
          "internalType": "uint256",
          "name": "_projectId",
          "type": "uint256"
        }
      ],
      "name": "acceptProject",
      "outputs": [],
      "stateMutability": "nonpayable",
      "type": "function"
    },
    {
      "inputs": [
        {
          "internalType": "uint256",
          "name": "_carbonReduction",
          "type": "uint256"
        },
        {
          "internalType": "string",
          "name": "_ipfsCID",
          "type": "string"
        },
        {
          "internalType": "string",
          "name": "_verificationId",
          "type": "string"
        }
      ],
      "name": "addProject",
      "outputs": [],
      "stateMutability": "nonpayable",
      "type": "function"
    },
    {
      "inputs": [
        {
          "internalType": "uint256",
          "name": "_projectId",
          "type": "uint256"
        }
      ],
      "name": "getProjectIssuedCredits",
      "outputs": [
        {
          "internalType": "uint256",
          "name": "",
          "type": "uint256"
        }
      ],
      "stateMutability": "view",
      "type": "function"
    },
    {
      "inputs": [
        {
          "internalType": "bytes32",
          "name": "role",
          "type": "bytes32"
        }
      ],
      "name": "getRoleAdmin",
      "outputs": [
        {
          "internalType": "bytes32",
          "name": "",
          "type": "bytes32"
        }
      ],
      "stateMutability": "view",
      "type": "function"
    },
    {
      "inputs": [
        {
          "internalType": "bytes32",
          "name": "role",
          "type": "bytes32"
        },
        {
          "internalType": "address",
          "name": "account",
          "type": "address"
        }
      ],
      "name": "grantRole",
      "outputs": [],
      "stateMutability": "nonpayable",
      "type": "function"
    },
    {
      "inputs": [
        {
          "internalType": "bytes32",
          "name": "role",
          "type": "bytes32"
        },
        {
          "internalType": "address",
          "name": "account",
          "type": "address"
        }
      ],
      "name": "hasRole",
      "outputs": [
        {
          "internalType": "bool",
          "name": "",
          "type": "bool"
        }
      ],
      "stateMutability": "view",
      "type": "function"
    },
    {
      "inputs": [],
      "name": "mintPercentage",
      "outputs": [
        {
          "internalType": "uint8",
          "name": "",
          "type": "uint8"
        }
      ],
      "stateMutability": "view",
      "type": "function"
    },
    {
      "inputs": [
        {
          "internalType": "uint256",
          "name": "_projectId",
          "type": "uint256"
        }
      ],
      "name": "projectExists",
      "outputs": [
        {
          "internalType": "bool",
          "name": "",
          "type": "bool"
        }
      ],
      "stateMutability": "view",
      "type": "function"
    },
    {
      "inputs": [
        {
          "internalType": "uint256",
          "name": "",
          "type": "uint256"
        }
      ],
      "name": "projects",
      "outputs": [
        {
          "internalType": "enum CarbonProjectRegistry.ProjectStatus",
          "name": "status",
          "type": "uint8"
        },
        {
          "internalType": "bytes32",
          "name": "uniqueVerificationId",
          "type": "bytes32"
        },
        {
          "internalType": "address",
          "name": "projectOwner",
          "type": "address"
        },
        {
          "internalType": "uint256",
          "name": "authenticationDate",
          "type": "uint256"
        },
        {
          "internalType": "uint256",
          "name": "carbonRemoved",
          "type": "uint256"
        },
        {
          "internalType": "uint256",
          "name": "creditsIssued",
          "type": "uint256"
        },
        {
          "internalType": "string",
          "name": "ipfsCID",
          "type": "string"
        }
      ],
      "stateMutability": "view",
      "type": "function"
    },
    {
      "inputs": [
        {
          "internalType": "uint256",
          "name": "_projectId",
          "type": "uint256"
        }
      ],
      "name": "rejectProject",
      "outputs": [],
      "stateMutability": "nonpayable",
      "type": "function"
    },
    {
      "inputs": [
        {
          "internalType": "bytes32",
          "name": "role",
          "type": "bytes32"
        },
        {
          "internalType": "address",
          "name": "callerConfirmation",
          "type": "address"
        }
      ],
      "name": "renounceRole",
      "outputs": [],
      "stateMutability": "nonpayable",
      "type": "function"
    },
    {
      "inputs": [
        {
          "internalType": "bytes32",
          "name": "role",
          "type": "bytes32"
        },
        {
          "internalType": "address",
          "name": "account",
          "type": "address"
        }
      ],
      "name": "revokeRole",
      "outputs": [],
      "stateMutability": "nonpayable",
      "type": "function"
    },
    {
      "inputs": [
        {
          "internalType": "bytes4",
          "name": "interfaceId",
          "type": "bytes4"
        }
      ],
      "name": "supportsInterface",
      "outputs": [
        {
          "internalType": "bool",
          "name": "",
          "type": "bool"
        }
      ],
      "stateMutability": "view",
      "type": "function"
    },
    {
      "inputs": [
        {
          "internalType": "uint256",
          "name": "_projectId",
          "type": "uint256"
        },
        {
          "internalType": "string",
          "name": "_newIpfsCID",
          "type": "string"
        }
      ],
      "name": "updateProjectMetaData",
      "outputs": [],
      "stateMutability": "nonpayable",
      "type": "function"
    }
  ],
  "bytecode": "0x60a060405234801561001057600080fd5b506040516113c33803806113c383398101604081905261002f91610166565b61003a60008361009e565b506100657f59a1c48e5837ad7a7f3dcedcbe129bf3249ec4fbf651fd4f5e2600ead39fe2f58361009e565b506100907f770fadb28e0e3026382976ee8b810cb0eb8666922148dd9e10b20cfb9b477ba88261009e565b50505060ff166080526101b1565b6000828152602081815260408083206001600160a01b038516845290915281205460ff16610140576000838152602081815260408083206001600160a01b03861684529091529020805460ff191660011790556100f83390565b6001600160a01b0316826001600160a01b0316847f2f8788117e7eff1d82e926ec794901d17c78024a50270940304540a733656f0d60405160405180910390a4506001610144565b5060005b92915050565b80516001600160a01b038116811461016157600080fd5b919050565b60008060006060848603121561017b57600080fd5b835160ff8116811461018c57600080fd5b925061019a6020850161014a565b91506101a86040850161014a565b90509250925092565b6080516111f06101d3600039600081816101bc0152610ba301526111f06000f3fe608060405234801561001057600080fd5b506004361061010b5760003560e01c80636e1d616e116100a2578063a217fddf11610071578063a217fddf1461029a578063bc5258f4146102a2578063be62da0e146102c5578063d547741f146102ec578063fd1d5ea9146102ff57600080fd5b80636e1d616e14610216578063703d52af1461023d578063849d0faa1461025057806391d148541461026357600080fd5b806336568abe116100de57806336568abe146101a457806360876ba7146101b757806369b04f19146101f057806369ed19ef1461020357600080fd5b806301ffc9a714610110578063107046bd14610138578063248a9ca31461015e5780632f2ff15d1461018f575b600080fd5b61012361011e366004610c2a565b610312565b60405190151581526020015b60405180910390f35b61014b610146366004610c5b565b610349565b60405161012f9796959493929190610c8a565b61018161016c366004610c5b565b60009081526020819052604090206001015490565b60405190815260200161012f565b6101a261019d366004610d2c565b610421565b005b6101a26101b2366004610d2c565b61044c565b6101de7f000000000000000000000000000000000000000000000000000000000000000081565b60405160ff909116815260200161012f565b6101a26101fe366004610c5b565b610484565b6101a2610211366004610db1565b610533565b6101817f59a1c48e5837ad7a7f3dcedcbe129bf3249ec4fbf651fd4f5e2600ead39fe2f581565b61012361024b366004610c5b565b61072d565b6101a261025e366004610dfd565b610767565b610123610271366004610d2c565b6000918252602082815260408084206001600160a01b0393909316845291905290205460ff1690565b610181600081565b6101816102b0366004610c5b565b60009081526001602052604090206005015490565b6101817f770fadb28e0e3026382976ee8b810cb0eb8666922148dd9e10b20cfb9b477ba881565b6101a26102fa366004610d2c565b6109a1565b6101a261030d366004610c5b565b6109c6565b60006001600160e01b03198216637965db0b60e01b148061034357506301ffc9a760e01b6001600160e01b03198316145b92915050565b6001602081905260009182526040909120805491810154600282015460038301546004840154600585015460068601805460ff9098169795966001600160a01b03909516959394929391929161039e90610e7c565b80601f01602080910402602001604051908101604052809291908181526020018280546103ca90610e7c565b80156104175780601f106103ec57610100808354040283529160200191610417565b820191906000526020600020905b8154815290600101906020018083116103fa57829003601f168201915b5050505050905087565b60008281526020819052604090206001015461043c81610a5e565b6104468383610a6b565b50505050565b6001600160a01b03811633146104755760405163334bd91960e11b815260040160405180910390fd5b61047f8282610b15565b505050565b7f59a1c48e5837ad7a7f3dcedcbe129bf3249ec4fbf651fd4f5e2600ead39fe2f56104ae81610a5e565b6104b78261072d565b6104d457604051632627b46560e11b815260040160405180910390fd5b600160008381526001602052604090205460ff1660028111156104f9576104f9610c74565b0361051757604051636cce5e2360e01b815260040160405180910390fd5b506000908152600160205260409020805460ff19166002179055565b3360009081527fdce112879e7d885bc96dde8ca2e39f4aa5b97d57fddf691a40835efb6c72b572602052604090205460ff161580156105a157503360009081527f0d2d6a5d08cb5d871289c0a3ca855d9da72909a111c24cce2d5c2b34a20daa54602052604090205460ff16155b1561061d576040805180820182527f770fadb28e0e3026382976ee8b810cb0eb8666922148dd9e10b20cfb9b477ba881527f59a1c48e5837ad7a7f3dcedcbe129bf3249ec4fbf651fd4f5e2600ead39fe2f5602082015290516301b51b2560e61b81526106149033908390600401610eb6565b60405180910390fd5b6106268361072d565b61064357604051632627b46560e11b815260040160405180910390fd5b3360009081527f0d2d6a5d08cb5d871289c0a3ca855d9da72909a111c24cce2d5c2b34a20daa54602052604090205460ff166106f6576000838152600160205260409020600201546001600160a01b031633146106b357604051637c2411e960e01b815260040160405180910390fd5b600160008481526001602052604090205460ff1660028111156106d8576106d8610c74565b036106f657604051636cce5e2360e01b815260040160405180910390fd5b6000838152600160205260409020600601610712828483610f5b565b5050506000908152600160205260409020805460ff19169055565b60008181526001602081905260408220015480820361074f5750600092915050565b60009081526003602052604090205460ff1692915050565b7f770fadb28e0e3026382976ee8b810cb0eb8666922148dd9e10b20cfb9b477ba861079181610a5e565b600083836040516107a392919061101b565b604080519182900390912060008181526003602052919091205490915060ff16156107e55783836040516315004fff60e31b8152600401610614929190611054565b86600003610809576040516311c9367160e31b815260048101889052602401610614565b6040805160e081019091528060008152602001828152602001336001600160a01b03168152602001600081526020018881526020016000815260200187878080601f01602080910402602001604051908101604052809392919081815260200183838082843760009201829052509390945250506002805482526001602081905260409092208451815491945092849260ff199092169184908111156108b1576108b1610c74565b021790555060208201516001820155604082015160028201805473ffffffffffffffffffffffffffffffffffffffff19166001600160a01b03909216919091179055606082015160038201556080820151600482015560a0820151600582015560c082015160068201906109259082611070565b50505060008181526003602052604090819020805460ff19166001179055600254905133907fee9ec833a0948228549fdd417a5170ad5221644f527fb7b59690ad4c36d4ef849061097b908b908b908b9061112f565b60405180910390a36002805490600061099383611168565b919050555050505050505050565b6000828152602081905260409020600101546109bc81610a5e565b6104468383610b15565b7f59a1c48e5837ad7a7f3dcedcbe129bf3249ec4fbf651fd4f5e2600ead39fe2f56109f081610a5e565b6109f98261072d565b610a1657604051632627b46560e11b815260040160405180910390fd5b6000828152600160208190526040909120805460ff1916909117815542600382015560040154610a4590610b98565b6000928352600160205260409092206005019190915550565b610a688133610bd3565b50565b6000828152602081815260408083206001600160a01b038516845290915281205460ff16610b0d576000838152602081815260408083206001600160a01b03861684529091529020805460ff19166001179055610ac53390565b6001600160a01b0316826001600160a01b0316847f2f8788117e7eff1d82e926ec794901d17c78024a50270940304540a733656f0d60405160405180910390a4506001610343565b506000610343565b6000828152602081815260408083206001600160a01b038516845290915281205460ff1615610b0d576000838152602081815260408083206001600160a01b0386168085529252808320805460ff1916905551339286917ff6391f5c32d9c69d2a47ea670b442974b53935d1edc7fd64eb21e047a839171b9190a4506001610343565b60006064610bc960ff7f00000000000000000000000000000000000000000000000000000000000000001684611181565b6103439190611198565b6000828152602081815260408083206001600160a01b038516845290915290205460ff16610c265760405163e2517d3f60e01b81526001600160a01b038216600482015260248101839052604401610614565b5050565b600060208284031215610c3c57600080fd5b81356001600160e01b031981168114610c5457600080fd5b9392505050565b600060208284031215610c6d57600080fd5b5035919050565b634e487b7160e01b600052602160045260246000fd5b600060038910610caa57634e487b7160e01b600052602160045260246000fd5b8882528760208301526001600160a01b03871660408301528560608301528460808301528360a083015260e060c083015282518060e084015260005b81811015610d04576020818601810151610100868401015201610ce6565b5060006101008285010152610100601f19601f83011684010191505098975050505050505050565b60008060408385031215610d3f57600080fd5b8235915060208301356001600160a01b0381168114610d5d57600080fd5b809150509250929050565b60008083601f840112610d7a57600080fd5b50813567ffffffffffffffff811115610d9257600080fd5b602083019150836020828501011115610daa57600080fd5b9250929050565b600080600060408486031215610dc657600080fd5b83359250602084013567ffffffffffffffff811115610de457600080fd5b610df086828701610d68565b9497909650939450505050565b600080600080600060608688031215610e1557600080fd5b85359450602086013567ffffffffffffffff811115610e3357600080fd5b610e3f88828901610d68565b909550935050604086013567ffffffffffffffff811115610e5f57600080fd5b610e6b88828901610d68565b969995985093965092949392505050565b600181811c90821680610e9057607f821691505b602082108103610eb057634e487b7160e01b600052602260045260246000fd5b50919050565b6001600160a01b038316815260608101602082018360005b6002811015610eed578151835260209283019290910190600101610ece565b5050509392505050565b634e487b7160e01b600052604160045260246000fd5b601f82111561047f57806000526020600020601f840160051c81016020851015610f345750805b601f840160051c820191505b81811015610f545760008155600101610f40565b5050505050565b67ffffffffffffffff831115610f7357610f73610ef7565b610f8783610f818354610e7c565b83610f0d565b6000601f841160018114610fbb5760008515610fa35750838201355b600019600387901b1c1916600186901b178355610f54565b600083815260209020601f19861690835b82811015610fec5786850135825560209485019460019092019101610fcc565b50868210156110095760001960f88860031b161c19848701351681555b505060018560011b0183555050505050565b8183823760009101908152919050565b81835281816020850137506000828201602090810191909152601f909101601f19169091010190565b60208152600061106860208301848661102b565b949350505050565b815167ffffffffffffffff81111561108a5761108a610ef7565b61109e816110988454610e7c565b84610f0d565b6020601f8211600181146110d257600083156110ba5750848201515b600019600385901b1c1916600184901b178455610f54565b600084815260208120601f198516915b8281101561110257878501518255602094850194600190920191016110e2565b50848210156111205786840151600019600387901b60f8161c191681555b50505050600190811b01905550565b83815260406020820152600061114960408301848661102b565b95945050505050565b634e487b7160e01b600052601160045260246000fd5b60006001820161117a5761117a611152565b5060010190565b808202811582820484141761034357610343611152565b6000826111b557634e487b7160e01b600052601260045260246000fd5b50049056fea2646970667358221220739fd5ac2a3c6b8a637c9ce59068d64ce79d756ed7b07560c91e4ddf4153ffb764736f6c634300081b0033",
  "linkReferences": {},
  "deployedLinkReferences": {}
}