{
  "_format": "hh-sol-artifact-1",
  "contractName": "CarbonCreditMarketplace",
  "sourceName": "contracts/CarbonCreditMarketplace.sol",
  "abi": [
    {
      "inputs": [
        {
          "internalType": "address",
          "name": "_carbonTokenAddress",
          "type": "address"
        },
        {
          "internalType": "address",
          "name": "_projectRegistryAddress",
          "type": "address"
        },
        {
          "internalType": "address",
          "name": "_initialOwner",
          "type": "address"
        }
      ],
      "stateMutability": "payable",
      "type": "constructor"
    },
    {
      "inputs": [
        {
          "internalType": "uint256",
          "name": "orderId",
          "type": "uint256"
        }
      ],
      "name": "ExpiredOrder",
      "type": "error"
    },
    {
      "inputs": [
        {
          "internalType": "uint256",
          "name": "orderId",
          "type": "uint256"
        }
      ],
      "name": "InactiveOrder",
      "type": "error"
    },
    {
      "inputs": [
        {
          "internalType": "uint256",
          "name": "amount",
          "type": "uint256"
        }
      ],
      "name": "InsufficientBalance",
      "type": "error"
    },
    {
      "inputs": [],
      "name": "InsufficientPayment",
      "type": "error"
    },
    {
      "inputs": [
        {
          "internalType": "uint256",
          "name": "amount",
          "type": "uint256"
        }
      ],
      "name": "InvalidAmount",
      "type": "error"
    },
    {
      "inputs": [
        {
          "internalType": "uint256",
          "name": "price",
          "type": "uint256"
        }
      ],
      "name": "InvalidPrice",
      "type": "error"
    },
    {
      "inputs": [],
      "name": "NotOrderOwner",
      "type": "error"
    },
    {
      "inputs": [
        {
          "internalType": "address",
          "name": "owner",
          "type": "address"
        }
      ],
      "name": "OwnableInvalidOwner",
      "type": "error"
    },
    {
      "inputs": [
        {
          "internalType": "address",
          "name": "account",
          "type": "address"
        }
      ],
      "name": "OwnableUnauthorizedAccount",
      "type": "error"
    },
    {
      "inputs": [],
      "name": "ReentrancyGuardReentrantCall",
      "type": "error"
    },
    {
      "inputs": [],
      "name": "RefundFailed",
      "type": "error"
    },
    {
      "inputs": [],
      "name": "TradingIsPaused",
      "type": "error"
    },
    {
      "inputs": [],
      "name": "TransferFailed",
      "type": "error"
    },
    {
      "inputs": [],
      "name": "TransferNotApproved",
      "type": "error"
    },
    {
      "anonymous": false,
      "inputs": [
        {
          "indexed": false,
          "internalType": "uint256[]",
          "name": "orderIds",
          "type": "uint256[]"
        }
      ],
      "name": "BatchExpiredOrdersClosed",
      "type": "event"
    },
    {
      "anonymous": false,
      "inputs": [
        {
          "indexed": true,
          "internalType": "uint256",
          "name": "orderId",
          "type": "uint256"
        },
        {
          "indexed": true,
          "internalType": "address",
          "name": "seller",
          "type": "address"
        },
        {
          "indexed": true,
          "internalType": "uint256",
          "name": "projectId",
          "type": "uint256"
        },
        {
          "indexed": false,
          "internalType": "uint256",
          "name": "creditsAmount",
          "type": "uint256"
        },
        {
          "indexed": false,
          "internalType": "uint256",
          "name": "orderPrice",
          "type": "uint256"
        }
      ],
      "name": "ExpiredOrderClosed",
      "type": "event"
    },
    {
      "anonymous": false,
      "inputs": [
        {
          "indexed": false,
          "internalType": "address",
          "name": "sender",
          "type": "address"
        },
        {
          "indexed": false,
          "internalType": "uint256",
          "name": "value",
          "type": "uint256"
        },
        {
          "indexed": false,
          "internalType": "bytes",
          "name": "data",
          "type": "bytes"
        }
      ],
      "name": "FallbackCalled",
      "type": "event"
    },
    {
      "anonymous": false,
      "inputs": [
        {
          "indexed": false,
          "internalType": "bool",
          "name": "isPaused",
          "type": "bool"
        }
      ],
      "name": "MarketplacePauseStatusChanged",
      "type": "event"
    },
    {
      "anonymous": false,
      "inputs": [
        {
          "indexed": true,
          "internalType": "uint256",
          "name": "orderId",
          "type": "uint256"
        },
        {
          "indexed": true,
          "internalType": "address",
          "name": "closedBy",
          "type": "address"
        },
        {
          "indexed": true,
          "internalType": "uint256",
          "name": "projectId",
          "type": "uint256"
        },
        {
          "indexed": false,
          "internalType": "uint256",
          "name": "creditsAmount",
          "type": "uint256"
        },
        {
          "indexed": false,
          "internalType": "uint256",
          "name": "orderPrice",
          "type": "uint256"
        }
      ],
      "name": "OrderClosed",
      "type": "event"
    },
    {
      "anonymous": false,
      "inputs": [
        {
          "indexed": true,
          "internalType": "uint256",
          "name": "orderId",
          "type": "uint256"
        },
        {
          "indexed": true,
          "internalType": "address",
          "name": "seller",
          "type": "address"
        },
        {
          "indexed": true,
          "internalType": "uint256",
          "name": "projectId",
          "type": "uint256"
        },
        {
          "indexed": false,
          "internalType": "uint256",
          "name": "creditsAmount",
          "type": "uint256"
        },
        {
          "indexed": false,
          "internalType": "uint256",
          "name": "orderPrice",
          "type": "uint256"
        }
      ],
      "name": "OrderCreated",
      "type": "event"
    },
    {
      "anonymous": false,
      "inputs": [
        {
          "indexed": true,
          "internalType": "address",
          "name": "buyer",
          "type": "address"
        },
        {
          "indexed": true,
          "internalType": "address",
          "name": "seller",
          "type": "address"
        },
        {
          "indexed": true,
          "internalType": "uint256",
          "name": "orderId",
          "type": "uint256"
        },
        {
          "indexed": false,
          "internalType": "uint256",
          "name": "amountFilled",
          "type": "uint256"
        },
        {
          "indexed": false,
          "internalType": "uint256",
          "name": "totalPrice",
          "type": "uint256"
        }
      ],
      "name": "OrderFilled",
      "type": "event"
    },
    {
      "anonymous": false,
      "inputs": [
        {
          "indexed": false,
          "internalType": "uint256",
          "name": "orderId",
          "type": "uint256"
        }
      ],
      "name": "OrderNotExpired",
      "type": "event"
    },
    {
      "anonymous": false,
      "inputs": [
        {
          "indexed": true,
          "internalType": "address",
          "name": "previousOwner",
          "type": "address"
        },
        {
          "indexed": true,
          "internalType": "address",
          "name": "newOwner",
          "type": "address"
        }
      ],
      "name": "OwnershipTransferred",
      "type": "event"
    },
    {
      "anonymous": false,
      "inputs": [
        {
          "indexed": false,
          "internalType": "uint256",
          "name": "newFeeBasisPoints",
          "type": "uint256"
        }
      ],
      "name": "PlatformFeeUpdated",
      "type": "event"
    },
    {
      "stateMutability": "payable",
      "type": "fallback"
    },
    {
      "inputs": [
        {
          "internalType": "address",
          "name": "",
          "type": "address"
        }
      ],
      "name": "accountBalances",
      "outputs": [
        {
          "internalType": "uint256",
          "name": "",
          "type": "uint256"
        }
      ],
      "stateMutability": "view",
      "type": "function"
    },
    {
      "inputs": [
        {
          "internalType": "uint256[]",
          "name": "_orderIds",
          "type": "uint256[]"
        }
      ],
      "name": "batchCloseExpiredOrders",
      "outputs": [],
      "stateMutability": "nonpayable",
      "type": "function"
    },
    {
      "inputs": [],
      "name": "carbonToken",
      "outputs": [
        {
          "internalType": "contract CarbonCreditToken",
          "name": "",
          "type": "address"
        }
      ],
      "stateMutability": "view",
      "type": "function"
    },
    {
      "inputs": [
        {
          "internalType": "uint256",
          "name": "_orderId",
          "type": "uint256"
        }
      ],
      "name": "closeExpiredOrder",
      "outputs": [],
      "stateMutability": "nonpayable",
      "type": "function"
    },
    {
      "inputs": [],
      "name": "closeExpiredOrderReward",
      "outputs": [
        {
          "internalType": "uint16",
          "name": "",
          "type": "uint16"
        }
      ],
      "stateMutability": "view",
      "type": "function"
    },
    {
      "inputs": [
        {
          "internalType": "uint256",
          "name": "_projectId",
          "type": "uint256"
        },
        {
          "internalType": "uint256",
          "name": "_amount",
          "type": "uint256"
        },
        {
          "internalType": "uint256",
          "name": "_pricePerCredit",
          "type": "uint256"
        }
      ],
      "name": "createSellOrder",
      "outputs": [],
      "stateMutability": "nonpayable",
      "type": "function"
    },
    {
      "inputs": [
        {
          "internalType": "uint256",
          "name": "_orderId",
          "type": "uint256"
        }
      ],
      "name": "executeTrade",
      "outputs": [],
      "stateMutability": "payable",
      "type": "function"
    },
    {
      "inputs": [],
      "name": "marketplacePaused",
      "outputs": [
        {
          "internalType": "bool",
          "name": "",
          "type": "bool"
        }
      ],
      "stateMutability": "view",
      "type": "function"
    },
    {
      "inputs": [
        {
          "internalType": "address",
          "name": "",
          "type": "address"
        },
        {
          "internalType": "address",
          "name": "",
          "type": "address"
        },
        {
          "internalType": "uint256[]",
          "name": "",
          "type": "uint256[]"
        },
        {
          "internalType": "uint256[]",
          "name": "",
          "type": "uint256[]"
        },
        {
          "internalType": "bytes",
          "name": "",
          "type": "bytes"
        }
      ],
      "name": "onERC1155BatchReceived",
      "outputs": [
        {
          "internalType": "bytes4",
          "name": "",
          "type": "bytes4"
        }
      ],
      "stateMutability": "nonpayable",
      "type": "function"
    },
    {
      "inputs": [
        {
          "internalType": "address",
          "name": "",
          "type": "address"
        },
        {
          "internalType": "address",
          "name": "",
          "type": "address"
        },
        {
          "internalType": "uint256",
          "name": "",
          "type": "uint256"
        },
        {
          "internalType": "uint256",
          "name": "",
          "type": "uint256"
        },
        {
          "internalType": "bytes",
          "name": "",
          "type": "bytes"
        }
      ],
      "name": "onERC1155Received",
      "outputs": [
        {
          "internalType": "bytes4",
          "name": "",
          "type": "bytes4"
        }
      ],
      "stateMutability": "nonpayable",
      "type": "function"
    },
    {
      "inputs": [],
      "name": "owner",
      "outputs": [
        {
          "internalType": "address",
          "name": "",
          "type": "address"
        }
      ],
      "stateMutability": "view",
      "type": "function"
    },
    {
      "inputs": [],
      "name": "platformFeeBasisPoints",
      "outputs": [
        {
          "internalType": "uint16",
          "name": "",
          "type": "uint16"
        }
      ],
      "stateMutability": "view",
      "type": "function"
    },
    {
      "inputs": [],
      "name": "projectRegistry",
      "outputs": [
        {
          "internalType": "contract CarbonProjectRegistry",
          "name": "",
          "type": "address"
        }
      ],
      "stateMutability": "view",
      "type": "function"
    },
    {
      "inputs": [
        {
          "internalType": "uint256",
          "name": "_orderId",
          "type": "uint256"
        }
      ],
      "name": "removeSellOrder",
      "outputs": [],
      "stateMutability": "nonpayable",
      "type": "function"
    },
    {
      "inputs": [],
      "name": "renounceOwnership",
      "outputs": [],
      "stateMutability": "nonpayable",
      "type": "function"
    },
    {
      "inputs": [
        {
          "internalType": "bytes4",
          "name": "interfaceId",
          "type": "bytes4"
        }
      ],
      "name": "supportsInterface",
      "outputs": [
        {
          "internalType": "bool",
          "name": "",
          "type": "bool"
        }
      ],
      "stateMutability": "view",
      "type": "function"
    },
    {
      "inputs": [],
      "name": "toggleMarketplacePause",
      "outputs": [],
      "stateMutability": "nonpayable",
      "type": "function"
    },
    {
      "inputs": [
        {
          "internalType": "uint256",
          "name": "",
          "type": "uint256"
        }
      ],
      "name": "tradeOrders",
      "outputs": [
        {
          "internalType": "bool",
          "name": "isActive",
          "type": "bool"
        },
        {
          "internalType": "address",
          "name": "seller",
          "type": "address"
        },
        {
          "internalType": "uint256",
          "name": "projectId",
          "type": "uint256"
        },
        {
          "internalType": "uint256",
          "name": "creditsAmount",
          "type": "uint256"
        },
        {
          "internalType": "uint256",
          "name": "orderPrice",
          "type": "uint256"
        },
        {
          "internalType": "uint256",
          "name": "expirationTimestamp",
          "type": "uint256"
        }
      ],
      "stateMutability": "view",
      "type": "function"
    },
    {
      "inputs": [
        {
          "internalType": "address",
          "name": "newOwner",
          "type": "address"
        }
      ],
      "name": "transferOwnership",
      "outputs": [],
      "stateMutability": "nonpayable",
      "type": "function"
    },
    {
      "inputs": [
        {
          "internalType": "uint16",
          "name": "newFeeBasisPoints",
          "type": "uint16"
        }
      ],
      "name": "updatePlatformFee",
      "outputs": [],
      "stateMutability": "nonpayable",
      "type": "function"
    },
    {
      "inputs": [
        {
          "internalType": "address",
          "name": "_to",
          "type": "address"
        },
        {
          "internalType": "uint256",
          "name": "_withdrawAmount",
          "type": "uint256"
        }
      ],
      "name": "withdrawAccountBalance",
      "outputs": [],
      "stateMutability": "nonpayable",
      "type": "function"
    },
    {
      "stateMutability": "payable",
      "type": "receive"
    }
  ],
  "bytecode": "0x608060408190526002805462ffff001916617800179055611bd8388190039081908339810160408190526100329161011b565b806001600160a01b03811661006157604051631e4fbdf760e01b81526000600482015260240160405180910390fd5b61006a816100af565b505060018055600280546301000000600160b81b03191663010000006001600160a01b0394851602179055600380546001600160a01b0319169190921617905561015e565b600080546001600160a01b038381166001600160a01b0319831681178455604051919092169283917f8be0079c531659141344cd1fd0a4f28419497f9722a3daafe3b4186f6b6457e09190a35050565b80516001600160a01b038116811461011657600080fd5b919050565b60008060006060848603121561013057600080fd5b610139846100ff565b9250610147602085016100ff565b9150610155604085016100ff565b90509250925092565b611a6b8061016d6000396000f3fe60806040526004361061013e5760003560e01c8063715018a6116100bb578063b2aa88cd1161007f578063ec8b907111610059578063ec8b9071146104b8578063f23a6e61146104d2578063f2fde38b146104fe5761016a565b8063b2aa88cd1461043e578063bc197c8114610453578063c58bfb66146104985761016a565b8063715018a6146103a457806382a71ef2146103b95780638da5cb5b146103e0578063a3855454146103fe578063afb069521461041e5761016a565b80633a219c29116101025780633a219c291461025c5780634200003b1461027c5780634ec7dbfd1461029c5780635a33d8dc146103315780636ff96d17146103695761016a565b806301ffc9a7146101aa57806302d2838b146101df5780630559c114146101f4578063137385471461021457806325d4d3a21461023c5761016a565b3661016a573060009081526006602052604081208054349290610162908490611561565b925050819055005b7faca09dd456ca888dccf8cc966e382e6e3042bb7e4d2d7815015f844edeafce4233346000366040516101a09493929190611574565b60405180910390a1005b3480156101b657600080fd5b506101ca6101c53660046115ba565b61051e565b60405190151581526020015b60405180910390f35b6101f26101ed3660046115eb565b610555565b005b34801561020057600080fd5b506101f261020f3660046115eb565b6108d3565b34801561022057600080fd5b50610229600a81565b60405161ffff90911681526020016101d6565b34801561024857600080fd5b506101f2610257366004611604565b610a23565b34801561026857600080fd5b506101f261027736600461167b565b610c72565b34801561028857600080fd5b506101f26102973660046116c3565b610fa8565b3480156102a857600080fd5b506102fa6102b73660046115eb565b60046020819052600091825260409091208054600182015460028301546003840154939094015460ff8316946101009093046001600160a01b0316939192919086565b6040805196151587526001600160a01b039095166020870152938501929092526060840152608083015260a082015260c0016101d6565b34801561033d57600080fd5b50600354610351906001600160a01b031681565b6040516001600160a01b0390911681526020016101d6565b34801561037557600080fd5b506103966103843660046116ed565b60066020526000908152604090205481565b6040519081526020016101d6565b3480156103b057600080fd5b506101f2611078565b3480156103c557600080fd5b5060025461035190630100000090046001600160a01b031681565b3480156103ec57600080fd5b506000546001600160a01b0316610351565b34801561040a57600080fd5b506101f26104193660046115eb565b61108c565b34801561042a57600080fd5b506101f2610439366004611708565b611214565b34801561044a57600080fd5b506101f2611318565b34801561045f57600080fd5b5061047f61046e366004611866565b63bc197c8160e01b95945050505050565b6040516001600160e01b031990911681526020016101d6565b3480156104a457600080fd5b5060025461022990610100900461ffff1681565b3480156104c457600080fd5b506002546101ca9060ff1681565b3480156104de57600080fd5b5061047f6104ed36600461191c565b63f23a6e6160e01b95945050505050565b34801561050a57600080fd5b506101f26105193660046116ed565b61136d565b60006001600160e01b03198216630271189760e51b148061054f57506301ffc9a760e01b6001600160e01b03198316145b92915050565b60025460ff16156105a15760405162461bcd60e51b8152602060048201526011602482015270151c98591a5b99c81a5cc81c185d5cd959607a1b60448201526064015b60405180910390fd5b6105a96113a8565b600081815260046020818152604092839020835160c081018552815460ff811615158083526101009091046001600160a01b03169382019390935260018201549481019490945260028101546060850152600381015460808501529091015460a083015261062d576040516317125bff60e21b815260048101839052602401610598565b8051801561063e5750428160a00151105b156106c65761064c826113d2565b806040015181602001516001600160a01b0316837f7c933a237edb05146c5a4fc90b36a5e4442221d456cb562caf2f8b44e9352f37846060015185608001516040516106a2929190918252602082015260400190565b60405180910390a46040516342279da760e01b815260048101839052602401610598565b80608001513410156106eb5760405163cd1c886760e01b815260040160405180910390fd5b60008281526004602081905260408220805460ff1916815501819055600254608083015161271091610100900461ffff160260808401516002546060860151604051637921219560e11b815230600482015233602482015260448101899052606481019190915260a06084820152600060a48201529390920493508390039163010000009091046001600160a01b03169063f242432a9060c401600060405180830381600087803b15801561079f57600080fd5b505af11580156107b3573d6000803e3d6000fd5b5050506020808501516001600160a01b0316600090815260069091526040808220805485019055308252902080548401905550608083015134818103911461086057604051600090339083908381818185875af1925050503d8060008114610837576040519150601f19603f3d011682016040523d82523d6000602084013e61083c565b606091505b505090508061085e57604051633c31275160e21b815260040160405180910390fd5b505b8484602001516001600160a01b0316336001600160a01b03167f2af088598dc2d3fff28bbbae949ffaf81b9fa3f705839b6225c0d0d6a362cbc4876060015188608001516040516108bb929190918252602082015260400190565b60405180910390a4505050506108d060018055565b50565b60025460ff161561091a5760405162461bcd60e51b8152602060048201526011602482015270151c98591a5b99c81a5cc81c185d5cd959607a1b6044820152606401610598565b600081815260046020818152604092839020835160c081018552815460ff811615158083526101009091046001600160a01b03169382019390935260018201549481019490945260028101546060850152600381015460808501529091015460a083015261099e576040516317125bff60e21b815260048101839052602401610598565b60208101516001600160a01b031633146109cb57604051637b2095ad60e11b815260040160405180910390fd5b6109d4826113d2565b60408082015160608301516080840151835191825260208201529091339185917fff7a4073b72127c04854b3fab1097bddc78e2cfcf422cdf2d3dad6309be72a02910160405180910390a45050565b610a2b6114c1565b8060008167ffffffffffffffff811115610a4757610a4761172c565b604051908082528060200260200182016040528015610a70578160200160208202803683370190505b5030600090815260066020526040812054919250908190815b85811015610be2576000888883818110610aa557610aa5611975565b6020908102929092013560008181526004808552604091829020825160c081018452815460ff81161580158084526101009092046001600160a01b031698830198909852600183015494820194909452600282015460608201526003820154608082015291015460a08201529194509092909150610b2657508060a0015142115b15610b8e57610b34826113d2565b608081015161271090600a02048501945084841015610b6957604051639266535160e01b815260048101869052602401610598565b81878781518110610b7c57610b7c611975565b60209081029190910101526001909501945b80518015610b9f57508060a0015142105b15610bd8576040518281527f25e25e9e50d5dc3385ab4268a346fff2964366f27821a856bfbbf950a6584a139060200160405180910390a15b5050600101610a89565b508115610c32573060009081526006602052604081208054849290610c0890849061198b565b90915550503360009081526006602052604081208054849290610c2c908490611561565b90915550505b7f491672d71da1d48a76a12a6027ba81826cd7c818740f648ed8556c898dafeabf84604051610c61919061199e565b60405180910390a150505050505050565b60025460ff1615610cb95760405162461bcd60e51b8152602060048201526011602482015270151c98591a5b99c81a5cc81c185d5cd959607a1b6044820152606401610598565b60025460405163e985e9c560e01b815233600482015230602482015263010000009091046001600160a01b03169063e985e9c590604401602060405180830381865afa158015610d0d573d6000803e3d6000fd5b505050506040513d601f19601f82011682018060405250810190610d3191906119e1565b610d4e57604051637c15d3ad60e11b815260040160405180910390fd5b80600003610d7257604051637cb1974360e11b815260048101829052602401610598565b600254604051627eeac760e11b81523360048201526024810185905263010000009091046001600160a01b03169062fdd58e90604401602060405180830381865afa158015610dc5573d6000803e3d6000fd5b505050506040513d601f19601f82011682018060405250810190610de99190611a03565b821115610e0c57604051639266535160e01b815260048101839052602401610598565b6005805460009182610e1d83611a1c565b90915550600254604051637921219560e11b8152336004820152306024820152604481018790526064810186905260a06084820152600060a4820152919250630100000090046001600160a01b03169063f242432a9060c401600060405180830381600087803b158015610e9057600080fd5b505af1158015610ea4573d6000803e3d6000fd5b50506040805160c08101825260018082523360208084018281528486018c8152606086018c81528b8d026080880181815262093a80420160a08a0190815260008e81526004808952908c90209a518b54975174ffffffffffffffffffffffffffffffffffffffffff1990981690151574ffffffffffffffffffffffffffffffffffffffff001916176101006001600160a01b0390981697909702969096178a5593519789019790975590516002880155945160038701555194019390935583518981529283018290529094508893509185917f92669f7499828c9972b3a5b6c0b107ca011f143600fd7b32517024d4a3d7ab28910160405180910390a45050505050565b3360009081526006602052604090205481811015610fdc57604051639266535160e01b815260048101829052602401610598565b3360009081526006602052604081208054849290610ffb90849061198b565b90915550506040516000906001600160a01b0385169084908381818185875af1925050503d806000811461104b576040519150601f19603f3d011682016040523d82523d6000602084013e611050565b606091505b5050905080611072576040516312171d8360e31b815260040160405180910390fd5b50505050565b6110806114c1565b61108a60006114ee565b565b600081815260046020818152604092839020835160c081018552815460ff81161580158084526101009092046001600160a01b031694830194909452600183015495820195909552600282015460608201526003820154608082015292015460a083015290919061110057508060a0015142115b156111dd5761110e826113d2565b608081015130600090815260066020526040902054612710600a90920291909104908181101561115457604051639266535160e01b815260048101839052602401610598565b503060009081526006602090815260408083208054859003905533835291829020805490930190925582810151918301516060840151608085015192516001600160a01b03929092169286927f7c933a237edb05146c5a4fc90b36a5e4442221d456cb562caf2f8b44e9352f37926111d492908252602082015260400190565b60405180910390a45b6040518281527f25e25e9e50d5dc3385ab4268a346fff2964366f27821a856bfbbf950a6584a139060200160405180910390a15050565b61121c6114c1565b6103e88161ffff1611156112725760405162461bcd60e51b815260206004820152601560248201527f4665652063616e6e6f74206578636565642031302500000000000000000000006044820152606401610598565b600a61ffff8216116112c65760405162461bcd60e51b815260206004820152601060248201527f46656520697320746f6f20736d616c6c000000000000000000000000000000006044820152606401610598565b6002805462ffff00191661010061ffff8416908102919091179091556040519081527f45610d581145924dd7090a5017e5f2b1d6f42213bb2e95707ff86846bbfcb1ca9060200160405180910390a150565b6113206114c1565b6002805460ff8082161560ff1990921682179092556040519116151581527f9c2449b9d5ab2a86be961e12849dc1cf26758c8d8f9048f3f1b800dec083faff9060200160405180910390a1565b6113756114c1565b6001600160a01b03811661139f57604051631e4fbdf760e01b815260006004820152602401610598565b6108d0816114ee565b6002600154036113cb57604051633ee5aeb560e01b815260040160405180910390fd5b6002600155565b6000818152600460208181526040808420805460ff1916808255818501869055825160c0810184528681526001600160a01b036101009092048216948101859052600183015481850181905260028085015460608401819052600390950154608084015260a08084018a905290549551637921219560e11b81523098810198909852602488019690965260448701526064860192909252608485019390935260a484019490945263010000009004169063f242432a9060c401600060405180830381600087803b1580156114a557600080fd5b505af11580156114b9573d6000803e3d6000fd5b505050505050565b6000546001600160a01b0316331461108a5760405163118cdaa760e01b8152336004820152602401610598565b600080546001600160a01b0383811673ffffffffffffffffffffffffffffffffffffffff19831681178455604051919092169283917f8be0079c531659141344cd1fd0a4f28419497f9722a3daafe3b4186f6b6457e09190a35050565b634e487b7160e01b600052601160045260246000fd5b8082018082111561054f5761054f61154b565b6001600160a01b038516815283602082015260606040820152816060820152818360808301376000818301608090810191909152601f909201601f191601019392505050565b6000602082840312156115cc57600080fd5b81356001600160e01b0319811681146115e457600080fd5b9392505050565b6000602082840312156115fd57600080fd5b5035919050565b6000806020838503121561161757600080fd5b823567ffffffffffffffff81111561162e57600080fd5b8301601f8101851361163f57600080fd5b803567ffffffffffffffff81111561165657600080fd5b8560208260051b840101111561166b57600080fd5b6020919091019590945092505050565b60008060006060848603121561169057600080fd5b505081359360208301359350604090920135919050565b80356001600160a01b03811681146116be57600080fd5b919050565b600080604083850312156116d657600080fd5b6116df836116a7565b946020939093013593505050565b6000602082840312156116ff57600080fd5b6115e4826116a7565b60006020828403121561171a57600080fd5b813561ffff811681146115e457600080fd5b634e487b7160e01b600052604160045260246000fd5b604051601f8201601f1916810167ffffffffffffffff8111828210171561176b5761176b61172c565b604052919050565b600082601f83011261178457600080fd5b813567ffffffffffffffff81111561179e5761179e61172c565b8060051b6117ae60208201611742565b918252602081850181019290810190868411156117ca57600080fd5b6020860192505b838310156117ec5782358252602092830192909101906117d1565b9695505050505050565b600082601f83011261180757600080fd5b813567ffffffffffffffff8111156118215761182161172c565b611834601f8201601f1916602001611742565b81815284602083860101111561184957600080fd5b816020850160208301376000918101602001919091529392505050565b600080600080600060a0868803121561187e57600080fd5b611887866116a7565b9450611895602087016116a7565b9350604086013567ffffffffffffffff8111156118b157600080fd5b6118bd88828901611773565b935050606086013567ffffffffffffffff8111156118da57600080fd5b6118e688828901611773565b925050608086013567ffffffffffffffff81111561190357600080fd5b61190f888289016117f6565b9150509295509295909350565b600080600080600060a0868803121561193457600080fd5b61193d866116a7565b945061194b602087016116a7565b93506040860135925060608601359150608086013567ffffffffffffffff81111561190357600080fd5b634e487b7160e01b600052603260045260246000fd5b8181038181111561054f5761054f61154b565b602080825282518282018190526000918401906040840190835b818110156119d65783518352602093840193909201916001016119b8565b509095945050505050565b6000602082840312156119f357600080fd5b815180151581146115e457600080fd5b600060208284031215611a1557600080fd5b5051919050565b600060018201611a2e57611a2e61154b565b506001019056fea2646970667358221220f570645335d89a1dd259bdf5e793cba379d617b566cfc015f8824ec8ce53d00264736f6c634300081b0033",
  "linkReferences": {},
  "deployedLinkReferences": {}
}