{
  "_format": "hh-sol-artifact-1",
  "contractName": "CarbonCreditToken",
  "sourceName": "contracts/CarbonCreditToken.sol",
  "abi": [
    {
      "inputs": [
        {
          "internalType": "address",
          "name": "_defaultAdmin",
          "type": "address"
        },
        {
          "internalType": "address",
          "name": "_manager",
          "type": "address"
        },
        {
          "internalType": "address",
          "name": "_registryAddress",
          "type": "address"
        }
      ],
      "stateMutability": "nonpayable",
      "type": "constructor"
    },
    {
      "inputs": [],
      "name": "AccessControlBadConfirmation",
      "type": "error"
    },
    {
      "inputs": [
        {
          "internalType": "address",
          "name": "account",
          "type": "address"
        },
        {
          "internalType": "bytes32",
          "name": "neededRole",
          "type": "bytes32"
        }
      ],
      "name": "AccessControlUnauthorizedAccount",
      "type": "error"
    },
    {
      "inputs": [
        {
          "internalType": "address",
          "name": "sender",
          "type": "address"
        },
        {
          "internalType": "uint256",
          "name": "balance",
          "type": "uint256"
        },
        {
          "internalType": "uint256",
          "name": "needed",
          "type": "uint256"
        },
        {
          "internalType": "uint256",
          "name": "tokenId",
          "type": "uint256"
        }
      ],
      "name": "ERC1155InsufficientBalance",
      "type": "error"
    },
    {
      "inputs": [
        {
          "internalType": "address",
          "name": "approver",
          "type": "address"
        }
      ],
      "name": "ERC1155InvalidApprover",
      "type": "error"
    },
    {
      "inputs": [
        {
          "internalType": "uint256",
          "name": "idsLength",
          "type": "uint256"
        },
        {
          "internalType": "uint256",
          "name": "valuesLength",
          "type": "uint256"
        }
      ],
      "name": "ERC1155InvalidArrayLength",
      "type": "error"
    },
    {
      "inputs": [
        {
          "internalType": "address",
          "name": "operator",
          "type": "address"
        }
      ],
      "name": "ERC1155InvalidOperator",
      "type": "error"
    },
    {
      "inputs": [
        {
          "internalType": "address",
          "name": "receiver",
          "type": "address"
        }
      ],
      "name": "ERC1155InvalidReceiver",
      "type": "error"
    },
    {
      "inputs": [
        {
          "internalType": "address",
          "name": "sender",
          "type": "address"
        }
      ],
      "name": "ERC1155InvalidSender",
      "type": "error"
    },
    {
      "inputs": [
        {
          "internalType": "address",
          "name": "operator",
          "type": "address"
        },
        {
          "internalType": "address",
          "name": "owner",
          "type": "address"
        }
      ],
      "name": "ERC1155MissingApprovalForAll",
      "type": "error"
    },
    {
      "inputs": [
        {
          "internalType": "uint256",
          "name": "projectId",
          "type": "uint256"
        }
      ],
      "name": "InsufficientBalance",
      "type": "error"
    },
    {
      "inputs": [
        {
          "internalType": "uint256",
          "name": "projectId",
          "type": "uint256"
        },
        {
          "internalType": "uint256",
          "name": "allowedAmount",
          "type": "uint256"
        }
      ],
      "name": "MintExceedsIssuedCredits",
      "type": "error"
    },
    {
      "inputs": [],
      "name": "MismatchingArrayLengths",
      "type": "error"
    },
    {
      "inputs": [
        {
          "internalType": "uint256",
          "name": "projectId",
          "type": "uint256"
        }
      ],
      "name": "ProjectNotFound",
      "type": "error"
    },
    {
      "anonymous": false,
      "inputs": [
        {
          "indexed": true,
          "internalType": "address",
          "name": "account",
          "type": "address"
        },
        {
          "indexed": true,
          "internalType": "address",
          "name": "operator",
          "type": "address"
        },
        {
          "indexed": false,
          "internalType": "bool",
          "name": "approved",
          "type": "bool"
        }
      ],
      "name": "ApprovalForAll",
      "type": "event"
    },
    {
      "anonymous": false,
      "inputs": [
        {
          "indexed": true,
          "internalType": "address",
          "name": "retiree",
          "type": "address"
        },
        {
          "indexed": true,
          "internalType": "uint256",
          "name": "projectId",
          "type": "uint256"
        },
        {
          "indexed": false,
          "internalType": "uint256",
          "name": "amount",
          "type": "uint256"
        },
        {
          "indexed": false,
          "internalType": "uint256",
          "name": "timestamp",
          "type": "uint256"
        },
        {
          "indexed": false,
          "internalType": "string",
          "name": "emissionDescription",
          "type": "string"
        }
      ],
      "name": "CreditRetired",
      "type": "event"
    },
    {
      "anonymous": false,
      "inputs": [
        {
          "indexed": true,
          "internalType": "address",
          "name": "to",
          "type": "address"
        },
        {
          "indexed": true,
          "internalType": "uint256",
          "name": "projectId",
          "type": "uint256"
        },
        {
          "indexed": false,
          "internalType": "uint256",
          "name": "amount",
          "type": "uint256"
        }
      ],
      "name": "CreditsMinted",
      "type": "event"
    },
    {
      "anonymous": false,
      "inputs": [
        {
          "indexed": true,
          "internalType": "address",
          "name": "to",
          "type": "address"
        },
        {
          "indexed": true,
          "internalType": "uint256[]",
          "name": "projectId",
          "type": "uint256[]"
        },
        {
          "indexed": false,
          "internalType": "uint256[]",
          "name": "amount",
          "type": "uint256[]"
        }
      ],
      "name": "CreditsMintedBatch",
      "type": "event"
    },
    {
      "anonymous": false,
      "inputs": [
        {
          "indexed": true,
          "internalType": "bytes32",
          "name": "role",
          "type": "bytes32"
        },
        {
          "indexed": true,
          "internalType": "bytes32",
          "name": "previousAdminRole",
          "type": "bytes32"
        },
        {
          "indexed": true,
          "internalType": "bytes32",
          "name": "newAdminRole",
          "type": "bytes32"
        }
      ],
      "name": "RoleAdminChanged",
      "type": "event"
    },
    {
      "anonymous": false,
      "inputs": [
        {
          "indexed": true,
          "internalType": "bytes32",
          "name": "role",
          "type": "bytes32"
        },
        {
          "indexed": true,
          "internalType": "address",
          "name": "account",
          "type": "address"
        },
        {
          "indexed": true,
          "internalType": "address",
          "name": "sender",
          "type": "address"
        }
      ],
      "name": "RoleGranted",
      "type": "event"
    },
    {
      "anonymous": false,
      "inputs": [
        {
          "indexed": true,
          "internalType": "bytes32",
          "name": "role",
          "type": "bytes32"
        },
        {
          "indexed": true,
          "internalType": "address",
          "name": "account",
          "type": "address"
        },
        {
          "indexed": true,
          "internalType": "address",
          "name": "sender",
          "type": "address"
        }
      ],
      "name": "RoleRevoked",
      "type": "event"
    },
    {
      "anonymous": false,
      "inputs": [
        {
          "indexed": true,
          "internalType": "address",
          "name": "operator",
          "type": "address"
        },
        {
          "indexed": true,
          "internalType": "address",
          "name": "from",
          "type": "address"
        },
        {
          "indexed": true,
          "internalType": "address",
          "name": "to",
          "type": "address"
        },
        {
          "indexed": false,
          "internalType": "uint256[]",
          "name": "ids",
          "type": "uint256[]"
        },
        {
          "indexed": false,
          "internalType": "uint256[]",
          "name": "values",
          "type": "uint256[]"
        }
      ],
      "name": "TransferBatch",
      "type": "event"
    },
    {
      "anonymous": false,
      "inputs": [
        {
          "indexed": true,
          "internalType": "address",
          "name": "operator",
          "type": "address"
        },
        {
          "indexed": true,
          "internalType": "address",
          "name": "from",
          "type": "address"
        },
        {
          "indexed": true,
          "internalType": "address",
          "name": "to",
          "type": "address"
        },
        {
          "indexed": false,
          "internalType": "uint256",
          "name": "id",
          "type": "uint256"
        },
        {
          "indexed": false,
          "internalType": "uint256",
          "name": "value",
          "type": "uint256"
        }
      ],
      "name": "TransferSingle",
      "type": "event"
    },
    {
      "anonymous": false,
      "inputs": [
        {
          "indexed": false,
          "internalType": "string",
          "name": "value",
          "type": "string"
        },
        {
          "indexed": true,
          "internalType": "uint256",
          "name": "id",
          "type": "uint256"
        }
      ],
      "name": "URI",
      "type": "event"
    },
    {
      "inputs": [],
      "name": "DEFAULT_ADMIN_ROLE",
      "outputs": [
        {
          "internalType": "bytes32",
          "name": "",
          "type": "bytes32"
        }
      ],
      "stateMutability": "view",
      "type": "function"
    },
    {
      "inputs": [],
      "name": "TOKEN_MANAGER_ROLE",
      "outputs": [
        {
          "internalType": "bytes32",
          "name": "",
          "type": "bytes32"
        }
      ],
      "stateMutability": "view",
      "type": "function"
    },
    {
      "inputs": [
        {
          "internalType": "address",
          "name": "account",
          "type": "address"
        },
        {
          "internalType": "uint256",
          "name": "id",
          "type": "uint256"
        }
      ],
      "name": "balanceOf",
      "outputs": [
        {
          "internalType": "uint256",
          "name": "",
          "type": "uint256"
        }
      ],
      "stateMutability": "view",
      "type": "function"
    },
    {
      "inputs": [
        {
          "internalType": "address[]",
          "name": "accounts",
          "type": "address[]"
        },
        {
          "internalType": "uint256[]",
          "name": "ids",
          "type": "uint256[]"
        }
      ],
      "name": "balanceOfBatch",
      "outputs": [
        {
          "internalType": "uint256[]",
          "name": "",
          "type": "uint256[]"
        }
      ],
      "stateMutability": "view",
      "type": "function"
    },
    {
      "inputs": [
        {
          "internalType": "address",
          "name": "account",
          "type": "address"
        },
        {
          "internalType": "uint256",
          "name": "id",
          "type": "uint256"
        },
        {
          "internalType": "uint256",
          "name": "value",
          "type": "uint256"
        }
      ],
      "name": "burn",
      "outputs": [],
      "stateMutability": "nonpayable",
      "type": "function"
    },
    {
      "inputs": [
        {
          "internalType": "address",
          "name": "account",
          "type": "address"
        },
        {
          "internalType": "uint256[]",
          "name": "ids",
          "type": "uint256[]"
        },
        {
          "internalType": "uint256[]",
          "name": "values",
          "type": "uint256[]"
        }
      ],
      "name": "burnBatch",
      "outputs": [],
      "stateMutability": "nonpayable",
      "type": "function"
    },
    {
      "inputs": [
        {
          "internalType": "uint256",
          "name": "id",
          "type": "uint256"
        }
      ],
      "name": "exists",
      "outputs": [
        {
          "internalType": "bool",
          "name": "",
          "type": "bool"
        }
      ],
      "stateMutability": "view",
      "type": "function"
    },
    {
      "inputs": [
        {
          "internalType": "bytes32",
          "name": "role",
          "type": "bytes32"
        }
      ],
      "name": "getRoleAdmin",
      "outputs": [
        {
          "internalType": "bytes32",
          "name": "",
          "type": "bytes32"
        }
      ],
      "stateMutability": "view",
      "type": "function"
    },
    {
      "inputs": [
        {
          "internalType": "bytes32",
          "name": "role",
          "type": "bytes32"
        },
        {
          "internalType": "address",
          "name": "account",
          "type": "address"
        }
      ],
      "name": "grantRole",
      "outputs": [],
      "stateMutability": "nonpayable",
      "type": "function"
    },
    {
      "inputs": [
        {
          "internalType": "bytes32",
          "name": "role",
          "type": "bytes32"
        },
        {
          "internalType": "address",
          "name": "account",
          "type": "address"
        }
      ],
      "name": "hasRole",
      "outputs": [
        {
          "internalType": "bool",
          "name": "",
          "type": "bool"
        }
      ],
      "stateMutability": "view",
      "type": "function"
    },
    {
      "inputs": [
        {
          "internalType": "address",
          "name": "account",
          "type": "address"
        },
        {
          "internalType": "address",
          "name": "operator",
          "type": "address"
        }
      ],
      "name": "isApprovedForAll",
      "outputs": [
        {
          "internalType": "bool",
          "name": "",
          "type": "bool"
        }
      ],
      "stateMutability": "view",
      "type": "function"
    },
    {
      "inputs": [
        {
          "internalType": "address",
          "name": "_to",
          "type": "address"
        },
        {
          "internalType": "uint64",
          "name": "_projectId",
          "type": "uint64"
        },
        {
          "internalType": "uint256",
          "name": "_amount",
          "type": "uint256"
        },
        {
          "internalType": "bytes",
          "name": "_data",
          "type": "bytes"
        }
      ],
      "name": "mintCredits",
      "outputs": [],
      "stateMutability": "nonpayable",
      "type": "function"
    },
    {
      "inputs": [
        {
          "internalType": "address",
          "name": "_to",
          "type": "address"
        },
        {
          "internalType": "uint256[]",
          "name": "_projectIds",
          "type": "uint256[]"
        },
        {
          "internalType": "uint256[]",
          "name": "_amounts",
          "type": "uint256[]"
        },
        {
          "internalType": "bytes",
          "name": "_data",
          "type": "bytes"
        }
      ],
      "name": "mintCreditsBatch",
      "outputs": [],
      "stateMutability": "nonpayable",
      "type": "function"
    },
    {
      "inputs": [],
      "name": "projectRegistry",
      "outputs": [
        {
          "internalType": "contract CarbonProjectRegistry",
          "name": "",
          "type": "address"
        }
      ],
      "stateMutability": "view",
      "type": "function"
    },
    {
      "inputs": [
        {
          "internalType": "bytes32",
          "name": "role",
          "type": "bytes32"
        },
        {
          "internalType": "address",
          "name": "callerConfirmation",
          "type": "address"
        }
      ],
      "name": "renounceRole",
      "outputs": [],
      "stateMutability": "nonpayable",
      "type": "function"
    },
    {
      "inputs": [
        {
          "internalType": "uint256",
          "name": "_projectId",
          "type": "uint256"
        },
        {
          "internalType": "uint256",
          "name": "_amount",
          "type": "uint256"
        },
        {
          "internalType": "string",
          "name": "_description",
          "type": "string"
        }
      ],
      "name": "retireCredits",
      "outputs": [],
      "stateMutability": "nonpayable",
      "type": "function"
    },
    {
      "inputs": [
        {
          "internalType": "bytes32",
          "name": "role",
          "type": "bytes32"
        },
        {
          "internalType": "address",
          "name": "account",
          "type": "address"
        }
      ],
      "name": "revokeRole",
      "outputs": [],
      "stateMutability": "nonpayable",
      "type": "function"
    },
    {
      "inputs": [
        {
          "internalType": "address",
          "name": "from",
          "type": "address"
        },
        {
          "internalType": "address",
          "name": "to",
          "type": "address"
        },
        {
          "internalType": "uint256[]",
          "name": "ids",
          "type": "uint256[]"
        },
        {
          "internalType": "uint256[]",
          "name": "values",
          "type": "uint256[]"
        },
        {
          "internalType": "bytes",
          "name": "data",
          "type": "bytes"
        }
      ],
      "name": "safeBatchTransferFrom",
      "outputs": [],
      "stateMutability": "nonpayable",
      "type": "function"
    },
    {
      "inputs": [
        {
          "internalType": "address",
          "name": "from",
          "type": "address"
        },
        {
          "internalType": "address",
          "name": "to",
          "type": "address"
        },
        {
          "internalType": "uint256",
          "name": "id",
          "type": "uint256"
        },
        {
          "internalType": "uint256",
          "name": "value",
          "type": "uint256"
        },
        {
          "internalType": "bytes",
          "name": "data",
          "type": "bytes"
        }
      ],
      "name": "safeTransferFrom",
      "outputs": [],
      "stateMutability": "nonpayable",
      "type": "function"
    },
    {
      "inputs": [
        {
          "internalType": "address",
          "name": "operator",
          "type": "address"
        },
        {
          "internalType": "bool",
          "name": "approved",
          "type": "bool"
        }
      ],
      "name": "setApprovalForAll",
      "outputs": [],
      "stateMutability": "nonpayable",
      "type": "function"
    },
    {
      "inputs": [
        {
          "internalType": "bytes4",
          "name": "interfaceId",
          "type": "bytes4"
        }
      ],
      "name": "supportsInterface",
      "outputs": [
        {
          "internalType": "bool",
          "name": "",
          "type": "bool"
        }
      ],
      "stateMutability": "view",
      "type": "function"
    },
    {
      "inputs": [],
      "name": "totalSupply",
      "outputs": [
        {
          "internalType": "uint256",
          "name": "",
          "type": "uint256"
        }
      ],
      "stateMutability": "view",
      "type": "function"
    },
    {
      "inputs": [
        {
          "internalType": "uint256",
          "name": "id",
          "type": "uint256"
        }
      ],
      "name": "totalSupply",
      "outputs": [
        {
          "internalType": "uint256",
          "name": "",
          "type": "uint256"
        }
      ],
      "stateMutability": "view",
      "type": "function"
    },
    {
      "inputs": [
        {
          "internalType": "uint256",
          "name": "",
          "type": "uint256"
        }
      ],
      "name": "uri",
      "outputs": [
        {
          "internalType": "string",
          "name": "",
          "type": "string"
        }
      ],
      "stateMutability": "view",
      "type": "function"
    }
  ],
  "bytecode": "0x608060405234801561001057600080fd5b5060405161244538038061244583398101604081905261002f91610183565b604080516020810190915260008152610047816100a7565b506100536000846100b7565b5061007e7f74f7a545c65c11839a48d7453738b30c295408df2d944516167556759ddc6d06836100b7565b50600680546001600160a01b0319166001600160a01b0392909216919091179055506103239050565b60026100b38282610265565b5050565b60008281526003602090815260408083206001600160a01b038516845290915281205460ff1661015d5760008381526003602090815260408083206001600160a01b03861684529091529020805460ff191660011790556101153390565b6001600160a01b0316826001600160a01b0316847f2f8788117e7eff1d82e926ec794901d17c78024a50270940304540a733656f0d60405160405180910390a4506001610161565b5060005b92915050565b80516001600160a01b038116811461017e57600080fd5b919050565b60008060006060848603121561019857600080fd5b6101a184610167565b92506101af60208501610167565b91506101bd60408501610167565b90509250925092565b634e487b7160e01b600052604160045260246000fd5b600181811c908216806101f057607f821691505b60208210810361021057634e487b7160e01b600052602260045260246000fd5b50919050565b601f82111561026057806000526020600020601f840160051c8101602085101561023d5750805b601f840160051c820191505b8181101561025d5760008155600101610249565b50505b505050565b81516001600160401b0381111561027e5761027e6101c6565b6102928161028c84546101dc565b84610216565b6020601f8211600181146102c657600083156102ae5750848201515b600019600385901b1c1916600184901b17845561025d565b600084815260208120601f198516915b828110156102f657878501518255602094850194600190920191016102d6565b50848210156103145786840151600019600387901b60f8161c191681555b50505050600190811b01905550565b612113806103326000396000f3fe608060405234801561001057600080fd5b50600436106101975760003560e01c80636b20c454116100e3578063c081ec961161008c578063e985e9c511610066578063e985e9c5146103d2578063f242432a1461040e578063f5298aca1461042157600080fd5b8063c081ec9614610385578063c2840e6014610398578063d547741f146103bf57600080fd5b8063a217fddf116100bd578063a217fddf1461034a578063a22cb46514610352578063bd85b0391461036557600080fd5b80636b20c454146102eb57806391d14854146102fe5780639ae4d7951461033757600080fd5b80632f2ff15d116101455780634e1273f41161011f5780634e1273f41461027e5780634f558e791461029e5780635a33d8dc146102c057600080fd5b80632f2ff15d1461024557806336568abe14610258578063430e80fd1461026b57600080fd5b806318160ddd1161017657806318160ddd14610205578063248a9ca31461020d5780632eb2c2d61461023057600080fd5b8062fdd58e1461019c57806301ffc9a7146101c25780630e89341c146101e5575b600080fd5b6101af6101aa366004611767565b610434565b6040519081526020015b60405180910390f35b6101d56101d03660046117a7565b61045c565b60405190151581526020016101b9565b6101f86101f33660046117cb565b610467565b6040516101b9919061182a565b6005546101af565b6101af61021b3660046117cb565b60009081526003602052604090206001015490565b61024361023e366004611985565b6104fb565b005b610243610253366004611a3b565b610586565b610243610266366004611a3b565b6105b1565b610243610279366004611a67565b6105e9565b61029161028c366004611b0c565b61082f565b6040516101b99190611c11565b6101d56102ac3660046117cb565b600090815260046020526040902054151590565b6006546102d3906001600160a01b031681565b6040516001600160a01b0390911681526020016101b9565b6102436102f9366004611c24565b6108fc565b6101d561030c366004611a3b565b60009182526003602090815260408084206001600160a01b0393909316845291905290205460ff1690565b610243610345366004611ce6565b61095b565b6101af600081565b610243610360366004611d72565b610b97565b6101af6103733660046117cb565b60009081526004602052604090205490565b610243610393366004611da9565b610ba6565b6101af7f74f7a545c65c11839a48d7453738b30c295408df2d944516167556759ddc6d0681565b6102436103cd366004611a3b565b610c2c565b6101d56103e0366004611dfc565b6001600160a01b03918216600090815260016020908152604080832093909416825291909152205460ff1690565b61024361041c366004611e26565b610c51565b61024361042f366004611e7f565b610ccf565b6000818152602081815260408083206001600160a01b03861684529091529020545b92915050565b600061045682610d05565b60606002805461047690611eb2565b80601f01602080910402602001604051908101604052809291908181526020018280546104a290611eb2565b80156104ef5780601f106104c4576101008083540402835291602001916104ef565b820191906000526020600020905b8154815290600101906020018083116104d257829003601f168201915b50505050509050919050565b336001600160a01b038616811480159061053b57506001600160a01b0380871660009081526001602090815260408083209385168352929052205460ff16155b156105715760405163711bec9160e11b81526001600160a01b038083166004830152871660248201526044015b60405180910390fd5b61057e8686868686610d2a565b505050505050565b6000828152600360205260409020600101546105a181610d91565b6105ab8383610d9e565b50505050565b6001600160a01b03811633146105da5760405163334bd91960e11b815260040160405180910390fd5b6105e48282610e4c565b505050565b7f74f7a545c65c11839a48d7453738b30c295408df2d944516167556759ddc6d0661061381610d91565b825184511461063557604051639344953160e01b815260040160405180910390fd5b60005b84518110156107c457600085828151811061065557610655611eec565b602090810291909101015160065460405163703d52af60e01b8152600481018390529192506001600160a01b03169063703d52af90602401602060405180830381865afa1580156106aa573d6000803e3d6000fd5b505050506040513d601f19601f820116820180604052508101906106ce9190611f02565b6106ee5760405163a89b369d60e01b815260048101829052602401610568565b600081815260046020526040812054600654604051632f14963d60e21b8152600481018590526001600160a01b039091169063bc5258f490602401602060405180830381865afa158015610746573d6000803e3d6000fd5b505050506040513d601f19601f8201168201806040525081019061076a9190611f1f565b6107749190611f4e565b905085838151811061078857610788611eec565b60200260200101518110156107ba576040516338d16d7160e11b81526004810183905260248101829052604401610568565b5050600101610638565b506107d185858585610ed3565b836040516107df9190611f61565b6040518091039020856001600160a01b03167fa12276f30b74785c5c3c296898e0e201128f534da98dd41fc974d709842ec01a856040516108209190611c11565b60405180910390a35050505050565b606081518351146108605781518351604051635b05999160e01b815260048101929092526024820152604401610568565b6000835167ffffffffffffffff81111561087c5761087c61183d565b6040519080825280602002602001820160405280156108a5578160200160208202803683370190505b50905060005b84518110156108f4576020808202860101516108cf90602080840287010151610434565b8282815181106108e1576108e1611eec565b60209081029190910101526001016108ab565b509392505050565b6001600160a01b038316331480159061091c575061091a83336103e0565b155b1561095057335b60405163711bec9160e11b81526001600160a01b0391821660048201529084166024820152604401610568565b6105e4838383610f0b565b7f74f7a545c65c11839a48d7453738b30c295408df2d944516167556759ddc6d0661098581610d91565b60065460405163703d52af60e01b815267ffffffffffffffff871660048201526001600160a01b039091169063703d52af90602401602060405180830381865afa1580156109d7573d6000803e3d6000fd5b505050506040513d601f19601f820116820180604052508101906109fb9190611f02565b610a245760405163a89b369d60e01b815267ffffffffffffffff86166004820152602401610568565b67ffffffffffffffff8516600090815260046020526040812054600654604051632f14963d60e21b815267ffffffffffffffff891660048201526001600160a01b039091169063bc5258f490602401602060405180830381865afa158015610a90573d6000803e3d6000fd5b505050506040513d601f19601f82011682018060405250810190610ab49190611f1f565b610abe9190611f4e565b905084811015610af4576040516338d16d7160e11b815267ffffffffffffffff8716600482015260248101829052604401610568565b610b40878767ffffffffffffffff168787878080601f016020809104026020016040519081016040528093929190818152602001838380828437600092019190915250610f5192505050565b8567ffffffffffffffff16876001600160a01b03167fc8bc4842cf61a3f6cbf597029d937fdf158ef4959a9616594587a0fb8c6b871187604051610b8691815260200190565b60405180910390a350505050505050565b610ba2338383610fae565b5050565b82610bb13386610434565b1015610bd357604051639266535160e01b815260048101859052602401610568565b610bde338585611044565b83336001600160a01b03167f445610cf06ed30ee461403e097b8111016c56cf5c8ad8355801cd86a5d01943085428686604051610c1e9493929190611f97565b60405180910390a350505050565b600082815260036020526040902060010154610c4781610d91565b6105ab8383610e4c565b336001600160a01b0386168114801590610c9157506001600160a01b0380871660009081526001602090815260408083209385168352929052205460ff16155b15610cc25760405163711bec9160e11b81526001600160a01b03808316600483015287166024820152604401610568565b61057e86868686866110ac565b6001600160a01b0383163314801590610cef5750610ced83336103e0565b155b15610cfa5733610923565b6105e4838383611044565b60006001600160e01b03198216637965db0b60e01b148061045657506104568261113a565b6001600160a01b038416610d5457604051632bfa23e760e11b815260006004820152602401610568565b6001600160a01b038516610d7d57604051626a0d4560e21b815260006004820152602401610568565b610d8a858585858561118a565b5050505050565b610d9b81336111dd565b50565b60008281526003602090815260408083206001600160a01b038516845290915281205460ff16610e445760008381526003602090815260408083206001600160a01b03861684529091529020805460ff19166001179055610dfc3390565b6001600160a01b0316826001600160a01b0316847f2f8788117e7eff1d82e926ec794901d17c78024a50270940304540a733656f0d60405160405180910390a4506001610456565b506000610456565b60008281526003602090815260408083206001600160a01b038516845290915281205460ff1615610e445760008381526003602090815260408083206001600160a01b0386168085529252808320805460ff1916905551339286917ff6391f5c32d9c69d2a47ea670b442974b53935d1edc7fd64eb21e047a839171b9190a4506001610456565b6001600160a01b038416610efd57604051632bfa23e760e11b815260006004820152602401610568565b6105ab60008585858561118a565b6001600160a01b038316610f3457604051626a0d4560e21b815260006004820152602401610568565b6105e483600084846040518060200160405280600081525061118a565b6001600160a01b038416610f7b57604051632bfa23e760e11b815260006004820152602401610568565b6040805160018082526020820186905281830190815260608201859052608082019092529061057e60008784848761118a565b6001600160a01b038216610fd75760405162ced3e160e81b815260006004820152602401610568565b6001600160a01b03838116600081815260016020908152604080832094871680845294825291829020805460ff191686151590811790915591519182527f17307eab39ab6107e8899845ad3d59bd9653f200f220920489ca2b5937696c31910160405180910390a3505050565b6001600160a01b03831661106d57604051626a0d4560e21b815260006004820152602401610568565b604080516001808252602082018590528183019081526060820184905260a08201909252600060808201818152919291610d8a9187918590859061118a565b6001600160a01b0384166110d657604051632bfa23e760e11b815260006004820152602401610568565b6001600160a01b0385166110ff57604051626a0d4560e21b815260006004820152602401610568565b60408051600180825260208201869052818301908152606082018590526080820190925290611131878784848761118a565b50505050505050565b60006001600160e01b03198216636cdb3d1360e11b148061116b57506001600160e01b031982166303a24d0760e21b145b8061045657506301ffc9a760e01b6001600160e01b0319831614610456565b61119685858585611232565b6001600160a01b03841615610d8a57825133906001036111cf57602084810151908401516111c883898985858961123e565b505061057e565b61057e818787878787611362565b60008281526003602090815260408083206001600160a01b038516845290915290205460ff16610ba25760405163e2517d3f60e01b81526001600160a01b038216600482015260248101839052604401610568565b6105ab8484848461144b565b6001600160a01b0384163b1561057e5760405163f23a6e6160e01b81526001600160a01b0385169063f23a6e61906112829089908990889088908890600401611fd4565b6020604051808303816000875af19250505080156112bd575060408051601f3d908101601f191682019092526112ba9181019061201c565b60015b611326573d8080156112eb576040519150601f19603f3d011682016040523d82523d6000602084013e6112f0565b606091505b50805160000361131e57604051632bfa23e760e11b81526001600160a01b0386166004820152602401610568565b805181602001fd5b6001600160e01b0319811663f23a6e6160e01b1461113157604051632bfa23e760e11b81526001600160a01b0386166004820152602401610568565b6001600160a01b0384163b1561057e5760405163bc197c8160e01b81526001600160a01b0385169063bc197c81906113a69089908990889088908890600401612039565b6020604051808303816000875af19250505080156113e1575060408051601f3d908101601f191682019092526113de9181019061201c565b60015b61140f573d8080156112eb576040519150601f19603f3d011682016040523d82523d6000602084013e6112f0565b6001600160e01b0319811663bc197c8160e01b1461113157604051632bfa23e760e11b81526001600160a01b0386166004820152602401610568565b61145784848484611537565b6001600160a01b0384166114d7576000805b83518110156114bd57602081810284810182015190860182015160009081526004909252604082208054919283926114a290849061209c565b909155506114b29050818461209c565b925050600101611469565b5080600560008282546114d0919061209c565b9091555050505b6001600160a01b0383166105ab576000805b83518110156115265760208181028481018201519086018201516000908152600490925260409091208054829003905591909101906001016114e9565b506005805491909103905550505050565b80518251146115665781518151604051635b05999160e01b815260048101929092526024820152604401610568565b3360005b835181101561166c576020818102858101820151908501909101516001600160a01b0388161561161d576000828152602081815260408083206001600160a01b038c168452909152902054818110156115f6576040516303dee4c560e01b81526001600160a01b038a166004820152602481018290526044810183905260648101849052608401610568565b6000838152602081815260408083206001600160a01b038d16845290915290209082900390555b6001600160a01b03871615611662576000828152602081815260408083206001600160a01b038b1684529091528120805483929061165c90849061209c565b90915550505b505060010161156a565b5082516001036116ed5760208301516000906020840151909150856001600160a01b0316876001600160a01b0316846001600160a01b03167fc3d58168c5ae7397731d063d5bbf3d657854427343f4c083240f7aacaa2d0f6285856040516116de929190918252602082015260400190565b60405180910390a45050610d8a565b836001600160a01b0316856001600160a01b0316826001600160a01b03167f4a39dc06d4c0dbc64b70af90fd698a233a518aa5d07e595d983b8c0526c8f7fb868660405161173c9291906120af565b60405180910390a45050505050565b80356001600160a01b038116811461176257600080fd5b919050565b6000806040838503121561177a57600080fd5b6117838361174b565b946020939093013593505050565b6001600160e01b031981168114610d9b57600080fd5b6000602082840312156117b957600080fd5b81356117c481611791565b9392505050565b6000602082840312156117dd57600080fd5b5035919050565b6000815180845260005b8181101561180a576020818501810151868301820152016117ee565b506000602082860101526020601f19601f83011685010191505092915050565b6020815260006117c460208301846117e4565b634e487b7160e01b600052604160045260246000fd5b604051601f8201601f1916810167ffffffffffffffff8111828210171561187c5761187c61183d565b604052919050565b600067ffffffffffffffff82111561189e5761189e61183d565b5060051b60200190565b600082601f8301126118b957600080fd5b81356118cc6118c782611884565b611853565b8082825260208201915060208360051b8601019250858311156118ee57600080fd5b602085015b8381101561190b5780358352602092830192016118f3565b5095945050505050565b600082601f83011261192657600080fd5b813567ffffffffffffffff8111156119405761194061183d565b611953601f8201601f1916602001611853565b81815284602083860101111561196857600080fd5b816020850160208301376000918101602001919091529392505050565b600080600080600060a0868803121561199d57600080fd5b6119a68661174b565b94506119b46020870161174b565b9350604086013567ffffffffffffffff8111156119d057600080fd5b6119dc888289016118a8565b935050606086013567ffffffffffffffff8111156119f957600080fd5b611a05888289016118a8565b925050608086013567ffffffffffffffff811115611a2257600080fd5b611a2e88828901611915565b9150509295509295909350565b60008060408385031215611a4e57600080fd5b82359150611a5e6020840161174b565b90509250929050565b60008060008060808587031215611a7d57600080fd5b611a868561174b565b9350602085013567ffffffffffffffff811115611aa257600080fd5b611aae878288016118a8565b935050604085013567ffffffffffffffff811115611acb57600080fd5b611ad7878288016118a8565b925050606085013567ffffffffffffffff811115611af457600080fd5b611b0087828801611915565b91505092959194509250565b60008060408385031215611b1f57600080fd5b823567ffffffffffffffff811115611b3657600080fd5b8301601f81018513611b4757600080fd5b8035611b556118c782611884565b8082825260208201915060208360051b850101925087831115611b7757600080fd5b6020840193505b82841015611ba057611b8f8461174b565b825260209384019390910190611b7e565b9450505050602083013567ffffffffffffffff811115611bbf57600080fd5b611bcb858286016118a8565b9150509250929050565b600081518084526020840193506020830160005b82811015611c07578151865260209586019590910190600101611be9565b5093949350505050565b6020815260006117c46020830184611bd5565b600080600060608486031215611c3957600080fd5b611c428461174b565b9250602084013567ffffffffffffffff811115611c5e57600080fd5b611c6a868287016118a8565b925050604084013567ffffffffffffffff811115611c8757600080fd5b611c93868287016118a8565b9150509250925092565b60008083601f840112611caf57600080fd5b50813567ffffffffffffffff811115611cc757600080fd5b602083019150836020828501011115611cdf57600080fd5b9250929050565b600080600080600060808688031215611cfe57600080fd5b611d078661174b565b9450602086013567ffffffffffffffff81168114611d2457600080fd5b935060408601359250606086013567ffffffffffffffff811115611d4757600080fd5b611d5388828901611c9d565b969995985093965092949392505050565b8015158114610d9b57600080fd5b60008060408385031215611d8557600080fd5b611d8e8361174b565b91506020830135611d9e81611d64565b809150509250929050565b60008060008060608587031215611dbf57600080fd5b8435935060208501359250604085013567ffffffffffffffff811115611de457600080fd5b611df087828801611c9d565b95989497509550505050565b60008060408385031215611e0f57600080fd5b611e188361174b565b9150611a5e6020840161174b565b600080600080600060a08688031215611e3e57600080fd5b611e478661174b565b9450611e556020870161174b565b93506040860135925060608601359150608086013567ffffffffffffffff811115611a2257600080fd5b600080600060608486031215611e9457600080fd5b611e9d8461174b565b95602085013595506040909401359392505050565b600181811c90821680611ec657607f821691505b602082108103611ee657634e487b7160e01b600052602260045260246000fd5b50919050565b634e487b7160e01b600052603260045260246000fd5b600060208284031215611f1457600080fd5b81516117c481611d64565b600060208284031215611f3157600080fd5b5051919050565b634e487b7160e01b600052601160045260246000fd5b8181038181111561045657610456611f38565b8151600090829060208501835b82811015611f8c578151845260209384019390910190600101611f6e565b509195945050505050565b84815283602082015260606040820152816060820152818360808301376000818301608090810191909152601f909201601f191601019392505050565b6001600160a01b03861681526001600160a01b038516602082015283604082015282606082015260a06080820152600061201160a08301846117e4565b979650505050505050565b60006020828403121561202e57600080fd5b81516117c481611791565b6001600160a01b03861681526001600160a01b038516602082015260a06040820152600061206a60a0830186611bd5565b828103606084015261207c8186611bd5565b9050828103608084015261209081856117e4565b98975050505050505050565b8082018082111561045657610456611f38565b6040815260006120c26040830185611bd5565b82810360208401526120d48185611bd5565b9594505050505056fea2646970667358221220fc8d0baa3fc748f1de7a04835db5f6d2b4d1c22e585d8ae2d684bee9fe6aec1f64736f6c634300081b0033",
  "linkReferences": {},
  "deployedLinkReferences": {}
}